{
  "_format": "hh-sol-artifact-1",
  "contractName": "TodoList",
  "sourceName": "contracts/TodoList.sol",
  "abi": [
    {
      "anonymous": false,
      "inputs": [
        {
          "indexed": false,
          "internalType": "string",
          "name": "content",
          "type": "string"
        },
        {
          "indexed": false,
          "internalType": "bool",
          "name": "isCompleted",
          "type": "bool"
        }
      ],
      "name": "NewTask",
      "type": "event"
    },
    {
      "inputs": [
        {
          "internalType": "string",
          "name": "_content",
          "type": "string"
        }
      ],
      "name": "addTask",
      "outputs": [],
      "stateMutability": "nonpayable",
      "type": "function"
    },
    {
      "inputs": [
        {
          "internalType": "uint256",
          "name": "index",
          "type": "uint256"
        }
      ],
      "name": "deleteTask",
      "outputs": [],
      "stateMutability": "nonpayable",
      "type": "function"
    },
    {
      "inputs": [],
      "name": "getTaskCount",
      "outputs": [
        {
          "internalType": "uint256",
          "name": "",
          "type": "uint256"
        }
      ],
      "stateMutability": "view",
      "type": "function"
    },
    {
      "inputs": [],
      "name": "getTasks",
      "outputs": [
        {
          "components": [
            {
              "internalType": "string",
              "name": "content",
              "type": "string"
            },
            {
              "internalType": "bool",
              "name": "isCompleted",
              "type": "bool"
            }
          ],
          "internalType": "struct TodoList.Task[]",
          "name": "",
          "type": "tuple[]"
        }
      ],
      "stateMutability": "view",
      "type": "function"
    },
    {
      "inputs": [
        {
          "internalType": "uint256",
          "name": "index",
          "type": "uint256"
        }
      ],
      "name": "updateTask",
      "outputs": [],
      "stateMutability": "nonpayable",
      "type": "function"
    }
  ],
  "bytecode": "0x608060405234801561001057600080fd5b50610d74806100206000396000f3fe608060405234801561001057600080fd5b50600436106100575760003560e01c806304a87e381461005c578063301402911461007a578063560f31921461009657806367238562146100b2578063c17a340e146100ce575b600080fd5b6100646100ec565b60405161007191906109a7565b60405180910390f35b610094600480360381019061008f9190610776565b6101f8565b005b6100b060048036038101906100ab9190610776565b61025e565b005b6100cc60048036038101906100c79190610735565b6103dc565b005b6100d661053f565b6040516100e39190610a19565b60405180910390f35b60606001805480602002602001604051908101604052809291908181526020016000905b828210156101ef578382906000526020600020906002020160405180604001604052908160008201805461014390610bb1565b80601f016020809104026020016040519081016040528092919081815260200182805461016f90610bb1565b80156101bc5780601f10610191576101008083540402835291602001916101bc565b820191906000526020600020905b81548152906001019060200180831161019f57829003601f168201915b505050505081526020016001820160009054906101000a900460ff16151515158152505081526020019060010190610110565b50505050905090565b6001808281548110610233577f4e487b7100000000000000000000000000000000000000000000000000000000600052603260045260246000fd5b906000526020600020906002020160010160006101000a81548160ff02191690831515021790555050565b60018080805490506102709190610afb565b815481106102a7577f4e487b7100000000000000000000000000000000000000000000000000000000600052603260045260246000fd5b9060005260206000209060020201600182815481106102ef577f4e487b7100000000000000000000000000000000000000000000000000000000600052603260045260246000fd5b9060005260206000209060020201600082018160000190805461031190610bb1565b61031c929190610548565b506001820160009054906101000a900460ff168160010160006101000a81548160ff0219169083151502179055509050506001805480610385577f4e487b7100000000000000000000000000000000000000000000000000000000600052603160045260246000fd5b6001900381819060005260206000209060020201600080820160006103aa91906105d5565b6001820160006101000a81549060ff0219169055505090556000808154809291906103d490610b87565b919050555050565b6040516020016103eb90610992565b6040516020818303038152906040528051906020012081604051602001610412919061097b565b604051602081830303815290604052805190602001201415610469576040517f08c379a0000000000000000000000000000000000000000000000000000000008152600401610460906109f9565b60405180910390fd5b6001604051806040016040528083815260200160001515815250908060018154018082558091505060019003906000526020600020906002020160009091909190915060008201518160000190805190602001906104c8929190610615565b5060208201518160010160006101000a81548160ff02191690831515021790555050506000808154809291906104fd90610c14565b91905055507f14bfe247f8ac7825b27f1065ceef0e563df1ff3c327a92a5c56c4891bea4d7f98160006040516105349291906109c9565b60405180910390a150565b60008054905090565b82805461055490610bb1565b90600052602060002090601f01602090048101928261057657600085556105c4565b82601f1061058757805485556105c4565b828001600101855582156105c457600052602060002091601f016020900482015b828111156105c35782548255916001019190600101906105a8565b5b5090506105d1919061069b565b5090565b5080546105e190610bb1565b6000825580601f106105f35750610612565b601f016020900490600052602060002090810190610611919061069b565b5b50565b82805461062190610bb1565b90600052602060002090601f016020900481019282610643576000855561068a565b82601f1061065c57805160ff191683800117855561068a565b8280016001018555821561068a579182015b8281111561068957825182559160200191906001019061066e565b5b509050610697919061069b565b5090565b5b808211156106b457600081600090555060010161069c565b5090565b60006106cb6106c684610a59565b610a34565b9050828152602081018484840111156106e357600080fd5b6106ee848285610b45565b509392505050565b600082601f83011261070757600080fd5b81356107178482602086016106b8565b91505092915050565b60008135905061072f81610d27565b92915050565b60006020828403121561074757600080fd5b600082013567ffffffffffffffff81111561076157600080fd5b61076d848285016106f6565b91505092915050565b60006020828403121561078857600080fd5b600061079684828501610720565b91505092915050565b60006107ab838361092f565b905092915050565b60006107be82610a9a565b6107c88185610abd565b9350836020820285016107da85610a8a565b8060005b8581101561081657848403895281516107f7858261079f565b945061080283610ab0565b925060208a019950506001810190506107de565b50829750879550505050505092915050565b61083181610b2f565b82525050565b61084081610b2f565b82525050565b600061085182610aa5565b61085b8185610ace565b935061086b818560208601610b54565b61087481610cea565b840191505092915050565b600061088a82610aa5565b6108948185610adf565b93506108a4818560208601610b54565b6108ad81610cea565b840191505092915050565b60006108c382610aa5565b6108cd8185610af0565b93506108dd818560208601610b54565b80840191505092915050565b60006108f6601483610adf565b915061090182610cfb565b602082019050919050565b6000610919600083610af0565b915061092482610d24565b600082019050919050565b6000604083016000830151848203600086015261094c8282610846565b91505060208301516109616020860182610828565b508091505092915050565b61097581610b3b565b82525050565b600061098782846108b8565b915081905092915050565b600061099d8261090c565b9150819050919050565b600060208201905081810360008301526109c181846107b3565b905092915050565b600060408201905081810360008301526109e3818561087f565b90506109f26020830184610837565b9392505050565b60006020820190508181036000830152610a12816108e9565b9050919050565b6000602082019050610a2e600083018461096c565b92915050565b6000610a3e610a4f565b9050610a4a8282610be3565b919050565b6000604051905090565b600067ffffffffffffffff821115610a7457610a73610cbb565b5b610a7d82610cea565b9050602081019050919050565b6000819050602082019050919050565b600081519050919050565b600081519050919050565b6000602082019050919050565b600082825260208201905092915050565b600082825260208201905092915050565b600082825260208201905092915050565b600081905092915050565b6000610b0682610b3b565b9150610b1183610b3b565b925082821015610b2457610b23610c5d565b5b828203905092915050565b60008115159050919050565b6000819050919050565b82818337600083830152505050565b60005b83811015610b72578082015181840152602081019050610b57565b83811115610b81576000848401525b50505050565b6000610b9282610b3b565b91506000821415610ba657610ba5610c5d565b5b600182039050919050565b60006002820490506001821680610bc957607f821691505b60208210811415610bdd57610bdc610c8c565b5b50919050565b610bec82610cea565b810181811067ffffffffffffffff82111715610c0b57610c0a610cbb565b5b80604052505050565b6000610c1f82610b3b565b91507fffffffffffffffffffffffffffffffffffffffffffffffffffffffffffffffff821415610c5257610c51610c5d565b5b600182019050919050565b7f4e487b7100000000000000000000000000000000000000000000000000000000600052601160045260246000fd5b7f4e487b7100000000000000000000000000000000000000000000000000000000600052602260045260246000fd5b7f4e487b7100000000000000000000000000000000000000000000000000000000600052604160045260246000fd5b6000601f19601f8301169050919050565b7f5461736b2063616e6e6f7420626520656d707479000000000000000000000000600082015250565b50565b610d3081610b3b565b8114610d3b57600080fd5b5056fea26469706673582212208ce7cb07133a2947db24298f72757ee14853e93743214094cd9c1f15a3b3f8d164736f6c63430008040033",
  "linkReferences": {},
  "deployedLinkReferences": {}
}